{
  "contractName": "Election",
  "abi": [
    {
      "constant": true,
      "inputs": [],
      "name": "candidatesCount",
      "outputs": [
        {
          "name": "",
          "type": "uint256"
        }
      ],
      "payable": false,
      "stateMutability": "view",
      "type": "function"
    },
    {
      "constant": true,
      "inputs": [
        {
          "name": "",
          "type": "uint256"
        }
      ],
      "name": "candidates",
      "outputs": [
        {
          "name": "id",
          "type": "uint256"
        },
        {
          "name": "name",
          "type": "string"
        },
        {
          "name": "birth",
          "type": "string"
        },
        {
          "name": "introduction",
          "type": "string"
        },
        {
          "name": "voteCount",
          "type": "uint256"
        }
      ],
      "payable": false,
      "stateMutability": "view",
      "type": "function"
    },
    {
      "constant": true,
      "inputs": [
        {
          "name": "",
          "type": "address"
        }
      ],
      "name": "voters",
      "outputs": [
        {
          "name": "",
          "type": "bool"
        }
      ],
      "payable": false,
      "stateMutability": "view",
      "type": "function"
    },
    {
      "inputs": [],
      "payable": false,
      "stateMutability": "nonpayable",
      "type": "constructor"
    },
    {
      "anonymous": false,
      "inputs": [
        {
          "indexed": true,
          "name": "_candidateId",
          "type": "uint256"
        }
      ],
      "name": "votedEvent",
      "type": "event"
    },
    {
      "anonymous": false,
      "inputs": [],
      "name": "addEvent",
      "type": "event"
    },
    {
      "constant": false,
      "inputs": [
        {
          "name": "_name",
          "type": "string"
        },
        {
          "name": "_birth",
          "type": "string"
        },
        {
          "name": "_introduction",
          "type": "string"
        }
      ],
      "name": "addCandidate",
      "outputs": [],
      "payable": false,
      "stateMutability": "nonpayable",
      "type": "function"
    },
    {
      "constant": false,
      "inputs": [
        {
          "name": "_candidateId",
          "type": "uint256"
        }
      ],
      "name": "vote",
      "outputs": [],
      "payable": false,
      "stateMutability": "nonpayable",
      "type": "function"
    }
  ],
  "bytecode": "0x608060405234801561001057600080fd5b506108b0806100206000396000f30060806040526004361061006d576000357c0100000000000000000000000000000000000000000000000000000000900463ffffffff1680630121b93f146100725780632d35a8a21461009f5780633477ee2e146100ca578063a3ec138d14610256578063ad71f8dc146102b1575b600080fd5b34801561007e57600080fd5b5061009d600480360381019080803590602001909291905050506103a6565b005b3480156100ab57600080fd5b506100b46104c8565b6040518082815260200191505060405180910390f35b3480156100d657600080fd5b506100f5600480360381019080803590602001909291905050506104ce565b60405180868152602001806020018060200180602001858152602001848103845288818151815260200191508051906020019080838360005b8381101561014957808201518184015260208101905061012e565b50505050905090810190601f1680156101765780820380516001836020036101000a031916815260200191505b50848103835287818151815260200191508051906020019080838360005b838110156101af578082015181840152602081019050610194565b50505050905090810190601f1680156101dc5780820380516001836020036101000a031916815260200191505b50848103825286818151815260200191508051906020019080838360005b838110156102155780820151818401526020810190506101fa565b50505050905090810190601f1680156102425780820380516001836020036101000a031916815260200191505b509850505050505050505060405180910390f35b34801561026257600080fd5b50610297600480360381019080803573ffffffffffffffffffffffffffffffffffffffff1690602001909291905050506106cc565b604051808215151515815260200191505060405180910390f35b3480156102bd57600080fd5b506103a4600480360381019080803590602001908201803590602001908080601f0160208091040260200160405190810160405280939291908181526020018383808284378201915050505050509192919290803590602001908201803590602001908080601f0160208091040260200160405190810160405280939291908181526020018383808284378201915050505050509192919290803590602001908201803590602001908080601f01602080910402602001604051908101604052809392919081815260200183838082843782019150505050505091929192905050506106ec565b005b6000803373ffffffffffffffffffffffffffffffffffffffff1673ffffffffffffffffffffffffffffffffffffffff16815260200190815260200160002060009054906101000a900460ff161515156103fe57600080fd5b60008111801561041057506002548111155b151561041b57600080fd5b60016000803373ffffffffffffffffffffffffffffffffffffffff1673ffffffffffffffffffffffffffffffffffffffff16815260200190815260200160002060006101000a81548160ff0219169083151502179055506001600082815260200190815260200160002060040160008154809291906001019190505550807ffff3c900d938d21d0990d786e819f29b8d05c1ef587b462b939609625b684b1660405160405180910390a250565b60025481565b6001602052806000526040600020600091509050806000015490806001018054600181600116156101000203166002900480601f0160208091040260200160405190810160405280929190818152602001828054600181600116156101000203166002900480156105805780601f1061055557610100808354040283529160200191610580565b820191906000526020600020905b81548152906001019060200180831161056357829003601f168201915b505050505090806002018054600181600116156101000203166002900480601f01602080910402602001604051908101604052809291908181526020018280546001816001161561010002031660029004801561061e5780601f106105f35761010080835404028352916020019161061e565b820191906000526020600020905b81548152906001019060200180831161060157829003601f168201915b505050505090806003018054600181600116156101000203166002900480601f0160208091040260200160405190810160405280929190818152602001828054600181600116156101000203166002900480156106bc5780601f10610691576101008083540402835291602001916106bc565b820191906000526020600020905b81548152906001019060200180831161069f57829003601f168201915b5050505050908060040154905085565b60006020528060005260406000206000915054906101000a900460ff1681565b60026000815480929190600101919050555060a060405190810160405280600254815260200184815260200183815260200182815260200160008152506001600060025481526020019081526020016000206000820151816000015560208201518160010190805190602001906107649291906107df565b5060408201518160020190805190602001906107819291906107df565b50606082015181600301908051906020019061079e9291906107df565b506080820151816004015590505060007ffff3c900d938d21d0990d786e819f29b8d05c1ef587b462b939609625b684b1660405160405180910390a2505050565b828054600181600116156101000203166002900490600052602060002090601f016020900481019282601f1061082057805160ff191683800117855561084e565b8280016001018555821561084e579182015b8281111561084d578251825591602001919060010190610832565b5b50905061085b919061085f565b5090565b61088191905b8082111561087d576000816000905550600101610865565b5090565b905600a165627a7a723058201ec032ca6ebfae4a70f3fa5fbf9b3751d20fa2071f01bf868cfa89d9321cea170029",
  "source": "pragma solidity ^0.4.2;\n\ncontract Election {\n    // Model a Candidate\n    struct Candidate {\n        uint id;\n        string name;\n        string birth;\n        string introduction;\n        uint voteCount;\n    }\n\n    // voted event\n    event votedEvent (\n        uint indexed _candidateId\n    );\n\n    // add event\n    event addEvent (\n        //string indexed _candidateName\n    );\n\n    // Store accounts that have voted\n    mapping(address => bool) public voters;\n    // Store Candidates\n    mapping(uint => Candidate) public candidates;\n    // Store Candidates Count\n    uint public candidatesCount;\n\n    // constructor \n    function Election ()  public {\n        // init with a candidate\n        //addCandidate(\"Candidate1\", \"1998/02/10\", \"introduction\");\n    }\n\n    function addCandidate (string _name, string _birth, string _introduction) public {    \n        // update candidates Count\n        candidatesCount++;\n\n        // add new candidate to container\n        candidates[candidatesCount] = Candidate(candidatesCount, _name, _birth, _introduction, 0);\n        \n        // trigger add event\n        votedEvent(0);\n    }\n\n    function vote (uint _candidateId) public {\n        // require that they haven't voted before\n        require(!voters[msg.sender]);\n\n        // require a valid candidate\n        require(_candidateId > 0 && _candidateId <= candidatesCount);\n\n        // record that voter has voted\n        voters[msg.sender] = true;\n\n        // update candidate vote Count\n        candidates[_candidateId].voteCount ++;\n\n        // trigger voted event\n        votedEvent(_candidateId);\n    }\n}",
  "sourcePath": "/Users/apple/Desktop/election/code/contracts/Election.sol",
  "compiler": {
    "name": "solc",
    "version": "0.4.24+commit.e67f0147.Emscripten.clang"
  },
  "schemaVersion": "2.0.1",
  "updatedAt": "2018-12-31T06:58:12.855Z"
}